{"abi":[{"type":"function","name":"channels","inputs":[{"name":"","type":"address","internalType":"address"},{"name":"","type":"address","internalType":"address"}],"outputs":[{"name":"","type":"address","internalType":"address"}],"stateMutability":"view"},{"type":"function","name":"createChannel","inputs":[{"name":"contributor","type":"address","internalType":"address"}],"outputs":[{"name":"channel","type":"address","internalType":"address"}],"stateMutability":"nonpayable"},{"type":"function","name":"getChannel","inputs":[{"name":"owner","type":"address","internalType":"address"},{"name":"contributor","type":"address","internalType":"address"}],"outputs":[{"name":"","type":"address","internalType":"address"}],"stateMutability":"view"},{"type":"function","name":"isChannel","inputs":[{"name":"","type":"address","internalType":"address"}],"outputs":[{"name":"","type":"bool","internalType":"bool"}],"stateMutability":"view"},{"type":"event","name":"ChannelCreated","inputs":[{"name":"owner","type":"address","indexed":true,"internalType":"address"},{"name":"contributor","type":"address","indexed":true,"internalType":"address"},{"name":"channel","type":"address","indexed":false,"internalType":"address"}],"anonymous":false}],"bytecode":{"object":"0x608080604052346015576111b7908161001a8239f35b5f80fdfe6080806040526004361015610012575f80fd5b5f3560e01c9081630dc90fc1146102475750806345a1b48d146100485780636e59f3f31461009d5763aee26d3f14610048575f80fd5b3461009957604036600319011261009957610061610280565b610069610296565b6001600160a01b039182165f90815260208181526040808320938516835292815290829020549151919092168152f35b5f80fd5b34610099576020366003190112610099576001600160a01b036100be610280565b16801561020257335f908152602081815260408083208484529091529020546001600160a01b03166101c457604051610ed58082019082821067ffffffffffffffff8311176101b05760409183916102ad83393381528460208201520301905ff09081156101a55760209160018060a01b031690335f525f835260405f20815f52835260405f20826bffffffffffffffffffffffff60a01b825416179055815f526001835260405f20600160ff198254161790556040518281527fa1df915b8442d05811e14e9963bdfe437dceea6c3af491bab0b7fc499232f18f843392a3604051908152f35b6040513d5f823e3d90fd5b634e487b7160e01b5f52604160045260245ffd5b60405162461bcd60e51b81526020600482015260166024820152754368616e6e656c20616c72656164792065786973747360501b6044820152606490fd5b60405162461bcd60e51b815260206004820152601b60248201527f496e76616c696420636f6e7472696275746f72206164647265737300000000006044820152606490fd5b34610099576020366003190112610099576020906001600160a01b0361026b610280565b165f526001825260ff60405f20541615158152f35b600435906001600160a01b038216820361009957565b602435906001600160a01b03821682036100995756fe60e0346100cf57601f610ed538819003918201601f19168301916001600160401b038311848410176100d35780849260409485528339810103126100cf57610052602061004b836100e7565b92016100e7565b9060805260a05262093a8060c052604051610dd990816100fc82396080518181816101180152818161030401528181610383015281816105e001526109f0015260a051818181610225015281816102c00152818161043a0152818161070b0152818161089a01526109b3015260c05181818160e2015261016c0152f35b5f80fd5b634e487b7160e01b5f52604160045260245ffd5b51906001600160a01b03821682036100cf5756fe6080806040526004361015610012575f80fd5b5f3560e01c90816311da60b41461090c575080631865c57d146108c85780631f8c411e1461058457806324f453d11461035b578063534db0e2146103335780638da5cb5b146102ef578063ba80d787146102ab578063c19d93fb14610270578063ca593dad14610253578063e0a7b2c314610105578063f3f480d9146100cb5763fc0c546a146100a0575f80fd5b346100c7575f3660031901126100c7575f546040516001600160a01b039091168152602090f35b5f80fd5b346100c7575f3660031901126100c75760206040517f00000000000000000000000000000000000000000000000000000000000000008152f35b346100c7575f3660031901126100c757337f00000000000000000000000000000000000000000000000000000000000000006001600160a01b0316148015610221575b61015190610b43565b61016060ff6004541615610b83565b6005546101dc576101917f000000000000000000000000000000000000000000000000000000000000000042610bc6565b80600555336bffffffffffffffffffffffff60a01b60065416176006556040519081527f3eb9241ca06793ab672590e858d0977206f824e7367806f94a90af391d275d3360203392a2005b60405162461bcd60e51b815260206004820152601960248201527f4368616c6c656e676520616c72656164792073746172746564000000000000006044820152606490fd5b50337f00000000000000000000000000000000000000000000000000000000000000006001600160a01b031614610148565b346100c7575f3660031901126100c7576020600554604051908152f35b346100c7575f3660031901126100c757608060015460025460035460ff60045416916040519384526020840152604083015215156060820152f35b346100c7575f3660031901126100c7576040517f00000000000000000000000000000000000000000000000000000000000000006001600160a01b03168152602090f35b346100c7575f3660031901126100c7576040517f00000000000000000000000000000000000000000000000000000000000000006001600160a01b03168152602090f35b346100c7575f3660031901126100c7576006546040516001600160a01b039091168152602090f35b346100c75760403660031901126100c7576004356001600160a01b038116908190036100c7577f00000000000000000000000000000000000000000000000000000000000000006001600160a01b03166024353382900361053f575f546001600160a01b03166105015780156104bc57604051926323b872dd60e01b5f5282600452306024528160445260205f60648180855af160015f511481161561049d575b846040525f6060521561048b575f80546001600160a01b03191682178155600183905560028190556003556004805460ff19169055835260208301527f00000000000000000000000000000000000000000000000000000000000000006001600160a01b0316917fc717586affeef38c9799b3cdb64a2a8c3624b086a0d4f2adb7fcec99722dd9fe90604090a3005b635274afe760e01b5f5260045260245ffd5b60018115166104b357813b15153d1516166103fc565b843d5f823e3d90fd5b60405162461bcd60e51b815260206004820152601760248201527f416d6f756e74206d75737420626520706f7369746976650000000000000000006044820152606490fd5b60405162461bcd60e51b815260206004820152601660248201527510da185b9b995b08185b1c9958591e481bdc195b995960521b6044820152606490fd5b60405162461bcd60e51b815260206004820152601b60248201527f4f6e6c79206f776e65722063616e206f70656e206368616e6e656c00000000006044820152606490fd5b346100c75760a03660031901126100c75760443560243560043560643567ffffffffffffffff81116100c7576105be903690600401610aed565b60843567ffffffffffffffff81116100c7576105de903690600401610aed565b7f00000000000000000000000000000000000000000000000000000000000000006001600160a01b0316903382148015610896575b61061c90610b43565b61062b60ff6004541615610b83565b60035486111561085a5761063f8585610bc6565b61064e60015460025490610bc6565b1061081c576106ea6106e5916106f3946106dc60405160208101903060601b82528960348201528a60548201528b607482015260748152610690609482610ab7565b51902060405160208101917f19457468657265756d205369676e6564204d6573736167653a0a3332000000008352603c820152603c81526106d2605c82610ab7565b5190209182610c68565b90959195610ca2565b610c68565b90949194610ca2565b6001600160a01b0316036107d7576001600160a01b037f00000000000000000000000000000000000000000000000000000000000000008116911603610792577fb27a3a9979877b12952e21e91eeded34f5ecc7d5147544ca7b58fa9cd85e30be926060928260015580600255816003555f6005556bffffffffffffffffffffffff60a01b6006541660065560405192835260208301526040820152a1005b60405162461bcd60e51b815260206004820152601d60248201527f496e76616c696420636f6e7472696275746f72207369676e61747572650000006044820152606490fd5b60405162461bcd60e51b815260206004820152601760248201527f496e76616c6964206f776e6572207369676e61747572650000000000000000006044820152606490fd5b60405162461bcd60e51b8152602060048201526016602482015275151bdd185b0818985b185b98d948195e18d95959195960521b6044820152606490fd5b60405162461bcd60e51b81526020600482015260146024820152732737b731b29036bab9ba103132903434b3b432b960611b6044820152606490fd5b50337f00000000000000000000000000000000000000000000000000000000000000006001600160a01b031614610613565b346100c7575f3660031901126100c75760a060015460025460035460ff60045416906005549260405194855260208501526040840152151560608301526080820152f35b346100c7575f3660031901126100c7576004549060ff8216610a75575060055480610a24575b5060ff1916600190811760045554806109e7575b50600254806109aa575b7f451550b1eb0b6c47d2b17fd468da5fbec02ab2d51de3d4331b1171f8b9c4ae83604060015460025482519182526020820152a17f6821b7df6ac3c960825ec594d716b8c7babb16a672ffdf0679a9ff6e873d5c825f80a1005b5f546109e191907f0000000000000000000000000000000000000000000000000000000000000000906001600160a01b0316610be7565b80610950565b5f54610a1e91907f0000000000000000000000000000000000000000000000000000000000000000906001600160a01b0316610be7565b80610946565b4210610a305781610932565b60405162461bcd60e51b815260206004820152601a60248201527f4368616c6c656e676520706572696f64206e6f7420656e6465640000000000006044820152606490fd5b62461bcd60e51b815260206004820152601760248201527f4368616e6e656c20616c726561647920736574746c65640000000000000000006044820152606490fd5b90601f8019910116810190811067ffffffffffffffff821117610ad957604052565b634e487b7160e01b5f52604160045260245ffd5b81601f820112156100c75780359067ffffffffffffffff8211610ad95760405192610b22601f8401601f191660200185610ab7565b828452602083830101116100c757815f926020809301838601378301015290565b15610b4a57565b60405162461bcd60e51b8152602060048201526011602482015270139bdd0818481c185c9d1a58da5c185b9d607a1b6044820152606490fd5b15610b8a57565b60405162461bcd60e51b815260206004820152601460248201527310da185b9b995b081a5cc8199a5b985b1a5e995960621b6044820152606490fd5b91908201809211610bd357565b634e487b7160e01b5f52601160045260245ffd5b916040519163a9059cbb60e01b5f5260018060a01b031660045260245260205f60448180865af19060015f5114821615610c47575b60405215610c275750565b635274afe760e01b5f9081526001600160a01b0391909116600452602490fd5b906001811516610c5f57823b15153d15161690610c1c565b503d5f823e3d90fd5b8151919060418303610c9857610c919250602082015190606060408401519301515f1a90610d16565b9192909190565b50505f9160029190565b6004811015610d025780610cb4575050565b60018103610ccb5763f645eedf60e01b5f5260045ffd5b60028103610ce6575063fce698f760e01b5f5260045260245ffd5b600314610cf05750565b6335e2f38360e21b5f5260045260245ffd5b634e487b7160e01b5f52602160045260245ffd5b91907f7fffffffffffffffffffffffffffffff5d576e7357a4501ddfe92f46681b20a08411610d98579160209360809260ff5f9560405194855216868401526040830152606082015282805260015afa15610d8d575f516001600160a01b03811615610d8357905f905f90565b505f906001905f90565b6040513d5f823e3d90fd5b5050505f916003919056fea2646970667358221220b8d7b4dd898758f0f2bf112084ff6197250a52fef593ce3d17faaf8c3214ef6164736f6c634300081e0033a2646970667358221220f937c31f69cef42c13bc1a26fb4891550f4aefdf3f15ef50cbc544c2a042a20c64736f6c634300081e0033","linkReferences":{}},"methodIdentifiers":{"channels(address,address)":"45a1b48d","createChannel(address)":"6e59f3f3","getChannel(address,address)":"aee26d3f","isChannel(address)":"0dc90fc1"},"id":34}